:400000000010002011000000510300005103000008B500F0E9FB00F09DF90000F7B572B680220021D200444801F027F88022D20042480021002401F020F8221C4048215830
:400040001030CBB201930F1CFF239F435300C0180023019EDDB2AE4209D05D00465D4519B446BC446D78664635700133F1E7C9B204345218102CE1D1324BC02292041A60A7
:40008000314B99221A60314B00261E60304B80271E6013042F4A3F0613602F4A3C2517602E4A13602E4B802292051A602D4A2E4B1A602E4B02221978114319702C490878B5
:4000C000A8431425284308701978162001431970284B80211960284BC9031960274B40211960274BC02149031960264B31211A60254B264D1960264B18201A602A688023CB
:40010000DB0213432B6000F05DFE2A68214B13402B60214A214B1A60214B20221C60214B1A60214B214A1F60214B1A60214A224B1A60224B1E60F7BD00300F4000400F403E
:400140009810000004000140100001400C0001400803044000500F4004500F4010500F4018500F40100001002001054000700F4001700F4000000440080004400001044032
:4001800008010440000404400804044000010B4018040440FFFFFBFF0600008004010B40080202402002024008010B401000008000000240AF040080400002400C020B40FC
:4001C00010B5064C2378002B07D1054B002B02D0044800E000BF0123237010BDF0000020000000009410000008B5084B002B03D00748084900E000BF07480368002B03D0D5
:40020000064B002B00D0984708BDC0460000000094100000F4000020D00000200000000010B562B600F086FC00280ED16524012000F0A8FD00F07EFC002806D1013CE4B24F
:40024000002CF4D1034B40221A6000F065FC00F09DFAFEE7C000002008B500F0EFFA00F027FB00F08FFB08BD70B5054B0D1C161C0024C9B21C8000F079FB3580201C70BD52
:400280000C010020F0B50A275F4387B003900591151C00262D4CBE4219DA00F0F7FA80B220802388002B0CD00220268800F06AFD00F0ECFA80B220802388B6B2B342F3D86F
:4002C00007E00120013600F05DFDB6B2E2E7052600E0002600272F802388002B33D023889BB2019301992B885A18059992B22A808A4221D2019ABB189BB2029302998F4212
:4003000009D07B1C9BB20493039BDF1900F0A4FA3870049FF2E772B62388019A9B1A9BB2238062B6039A5318013B1B78172B08D0052000F027FD04E02B8000F0B9FA05266F
:4003400001E0029FC8E7301C07B0F0BD0C010020FEE7000070B51049104B01394A1C15D01E685C689D680022A018AA4203D0B058A0500432F8E7DC68021C151AA54202D0ED
:40038000002520C2F9E710330139E7E700F046FEFFF746FFFEE7C046010000001811000008B500239A00032B02D80D49895800E00C490D4801338150302BF3D1FFF72EFEFE
:4003C0000A4B00221A600A4B1A68002A00D11A608023DB051A6801210A431A6008BDC046000000005103000000000020C8000020C00000200047000038B5041C0138062810
:400400000BD800F001FE2406260F11080400174B20E0174B09E0174B07E0002000F0A4FC002302E0144B00E0144B5A78187800021043022C04D0032C07D0012C15D104E06F
:40044000030A0002184380B20FE000BA0DE00C4B00E00C4BDD7899785A7818780B0200062843184313041843E3E738BDD87F0000C57F0000D47F0000D27F0000D67F000056
:40048000C17F0000C97F000038B50220FFF7B4FF051C0320FFF7B0FF6C1CE40124180220FFF7AAFF0023421CD201191CA24209D21078451EEDB2FD2D00D80121C318DBB24B
:4004C0000132F3E7054A5B421278DBB20620934203D14B4259414942084038BDC07F0000F0B5A04CA544FFF7B7FE62B6002501950295002626AC05AD9621201C49002A1C34
:40050000FF23FFF7BFFE0028F4D12988062900D823E122780423012A5FD1E578A2782D0215436219577903971779BC46EF1D8F4200D914E19279172A4FD1EB189BB2002B1A
:4005400008D0BCA9884FCA18D2191278013B801880B2F3E70399404263460A0280B21A430823824239D169E0019F342A00D094E0012F00D0F1E0032D00D0EEE071A8002171
:40058000802200F07AFD802671A98819EA1E26397519FF39ADB200F067FD832D00D0D4E0A5796379029F2D021D43002F0AD1391C802206A800F061FD0127FF2006A900F0B0
:4005C000EBFA0297281C71A900F0E6FA002800D1BFE00125019500260A230021012020706846993003706B469A336A4600201632197058700B1D11809BB2BCAFFD185A4FD6
:40060000013BED192D789BB2401980B2002BF4D1BCAD564F6B18DD194042554F80B22870DD19000A2870534807311B181720187089B2201C9623FFF717FE5BE726AF7A78F3
:400640003B79101C31380A2801D90523C5E700F0D1FC0611FC8B29FC2D3E8B4D7200019801287AD1002D78D1FFF70EFF434243413B715DE0019F012F6FD1012D6DD1002BFD
:400680006BD13D4A042112681288E371D2092271120A6271FF22A271A0E7012F5DD1022D5BD971E7019F012F57D122E7019F012F53D1962377195B009F4250D871A988195C
:4006C0002A1C27A900F0D0FCBEB2002385E7002D43D106AB294A191C81CA81C127AA81CB81C2012701972B1C082177E7019F012F33D1032D31D1A0796279000210431F02A4
:40070000C719FF01002280210139CD5D5219D2B20029F9D1002B08D1FF2806D1184B1B78D21A184B1B78D21AD2B2524226AB1A710023012152E7FFF7A7FE002802D1124B25
:4007400080221A6000F012FB07E001250195002605E001270197061CB7E704233DE703233BE7C0460CFDFFFFA7FDFFFFACFDFFFFADFDFFFFAEFDFFFFD4000020BC10000038
:40078000D07F0000D17F0000C0000020144810B50368002219680B1C013BBF2B03D01C781219D2B2F8E743681B789A1AD2B29A4201D1002902D1002000F0D6FAFFF764FEF1
:4007C000084B19681A1C402901D0002803D000231360FFF785FE80221A6000F0C7FA10BDD4000020C000002008B50B4B1A6810231A400A4B00D11A601A68802A0BD1002251
:4008000001201A60FFF7F8FD002804D00120FFF7F3FDFFF7EFFD08BD00030B40C000002008B5054B8022196812060A431A600A2000F086FA08BDC0460000064010B5054C8A
:400840002378002B03D100F0BFF801232370FFF7E7FF10BD10010020094B0A4A1968136899420BD011684B1C4039481E814149420B400549C85C1360C0B200E000207047E7
:40088000AC0100202401002068010020064B074A1B6811688B4202D31068181A02E012684133981A7047C046AC010020240100200C4A0D4B002130B5106811601D6880249C
:4008C00064022C431C601D68084C2C401C60084B1C68084B1C60084B19700849084B1960106030BDC80F064004030640FFFFFEFF24010020AC010020A9010020ED0F0000AD
:40090000C00F0640124910B50A68531C3F3A541EA241524213400F4A1468A342FBD00C681268944208D10C4A14680F222240082A02D00A4B18600AE0094C02222260094C5A
:40094000C0B2E0540B60084B19680A431A6010BD200100201C0100200802064040020640800F064028010020880F064038B5041C4518AC4204D02078FFF7C4FF0134F8E71C
:4009800038BD00000B4A0023116810B513600A4B80201C684002204318601C68074820401860074B1868074B186002239943116010BDC046880F064004020640FFFFFEFFD3
:4009C0001C010020200100201D4A1E4B10B51A601D4B00241C601D4B01221A601C491D4B07200B601C4908601C490A200C601C490A601C4A13601C4B1C6000F0ABF90A20ED
:400A0000032100F07DF919490A2000F06DF9184B04221C60174B1C60174B1C60174B1C60174B1A60174B1C60174B1C60174B1C60174B1C70174B1C60174B1C6010BDC046B8
:400A40000B00000200000640400006404800064000030640070000800403064010030640440006400002064004020640110F0000880E0640C80E0640480F0640080F064069
:400A8000C80F0640880F0640AC01002024010020A9010020200100201C0100200E4B8422D2041A601968802252020A431A601A680A491A600A4BC32292001A60094B00224A
:400AC0001A60094B094A1360094A1160094A1360094B1C221A6070470001054088130000240105403801054010270000140105400C010540080105402801054008B500F000
:400B00002CF8044B01211A680A431A6000F029F808BDC0460000054010B5054C2378002B03D1FFF7BBFF01232370FFF7E7FF10BD18010020024B18680006C00F7047C0465E
:400B400004000440000000000230800804D0C0460138FDD1C046C0467047EFF3108072B6704780F3108870470A4A10B513680020141C1A0F11070A2A0BD0002809D18022E4
:400B80005205881841424841226840421840131CEFE710BD08000040F0B5071CABB00124FF2800D991E0002900D18EE008ACB6232370D7230025637080227F230AA8A57076
:400BC000E570636000F050FA2B1C291C2A1C0195981C80002058002802D01218014301930133202BF4D1002A02D1002964D100E0002100910291364D364E374B2C60336027
:400C00003368002BFCDB2B68FFF7AEFF041E5CD1FFF7A3FF314B69461A68BFB20492B6220A76D8224A766A465783294A06A90397059011602A49274A1F1C11603368002B92
:400C4000FCDB2B68A0221206934201D0002B2CD1009A002A2AD0002180220AA800F00DFA019B029902331C4A08AC9B0019512C6032603368002BFCDB2B68FFF775FF041ED3
:400C800014D107ABB6221A70D9225A700399104A59801360134A0F4B1A603368002BFCDB2B68A0221206934200D01C1C049A05983A60FFF756FF08E0019B02339B00E1586F
:400CC000E25001220291009295E7201C2BB0F0BD08000040040000400400008008010B4005000080060000801F2800D901BE034A80008318186819607047C046400000206E
:400D000038B5041C0D1E032D00D901BE1F2C00D901BEFFF722FFA308084A9B009B1803221440944019680634A2409143A5400C1C2C431C60FFF715FF38BDC04600E400E0EF
:400D40001F23184001238340181C014B1860704700E100E01F23184001238340181C014B1860704780E100E001BE7047034B04491A6892B20A431A607047C0460CED00E0DD
:400D80000400FA0510B5041C8022074B1202944205D91868FFF7D8FE044BE418F4E758686043FFF7D1FE10BDDC0000200080FFFF08B5034B1B7A5843FFF7C6FE08BDC046EE
:400DC000DC000020F0B5C11E85B0041C01912D2975D8FFF7C2FE002303903A4F3A4A3D68985C3F212940884201D1033303E001332E2BF2D13023354A1278944204D8344A7D
:400E00001678344AF6B21EE0334A1278944204D8324A1678324AF6B215E0324A1278944204D8314A1678314AF6B20CE0304A1278944204D82F4A16782F4AF6B203E02F4A1A
:400E400016782F4AF6B215782D4AEDB2A21802922A2B07D92A2C1BD919233B600520FFF773FE01E09C4213D90299264A0B782649DBB21360254B05201E600D60FFF798FF3B
:400E80000199114A0520535C3B60FFF75DFE12E001990D4A0520535C3B60FFF755FE029A18491378194ADBB20B60174B166005201D60FFF77DFF0398FFF753FE00E001BE92
:400EC00005B0F0BD2CFF0B40C4100000C0F1FF0FC1F1FF0FC2F1FF0FC3F1FF0FC4F1FF0FC5F1FF0FC6F1FF0FC7F1FF0FC8F1FF0FC9F1FF0FCAF1FF0FCBF1FF0FCCF1FF0F45
:400F0000CDF1FF0F28FF0B4020FF0B401CFF0B40274B10B51B68002B00D09847254B1B685A071DD5244B1B681A0716D0234B244A186811684B1C40394C1EA14149420B40F9
:400F4000204909688B4203D11F4B20221A70E9E71E49C0B2C8541360E4E71D4B04221A601C4B1B689A0721D51B4B1A680F231340082B18D0194B1A4A1968136899420DD030
:400F800011684B1C3F39481E814149420B401549C85C1549C0B208601360E5E7134B02211A688A431A60124B02221A6010BDC04614010020CC0F064008030640400306409A
:400FC000AC01002024010020A901002068010020C00F06408C0F064008020640200100201C0100202801002040020640880F0640800F064002B47146490849000956490096
:401000008E4402BC7047C04602B4714649084900095C49008E4402BC7047C04670B50E4B0E4D0024ED1AAD101E1CAC4204D0A300F35898470134F8E700F05CF8084B094DD6
:401040000024ED1AAD101E1CAC4204D0A300F35898470134F8E770BD0011000000110000001100000811000010B50023934203D0CC5CC4540133F9E710BD031C82189342F3
:4010800002D019700133FAE77047000048110000C70000000000000001330F4003410F4004430F4002600F40E61062048E04D84018808C40C608E608020111019311160493
:4010C00011140101030405060708090A0B0C0E0F101112131415161718191B1C1D1E1F2021222325262728292A2B2E2F3031323334350000F8B5C046F8BC08BC9E46704713
:40110000E9010000A1030000F8B5C046F8BC08BC9E467047C101000028110000D000002020000000C0000000000000008C100000901000000000E02EC05D00001800000011
:4011400000366E01000000000000000000000000000000000000000000000000000000000000000000000000000000000000000000000000000000000000000000000000CA
:40118000000000000000000000000000000000000000000000000000000000000000000000000000000000000000000000000000000000000000000000000000000000002F
:4011C00000000000000000000000000000000000000000000000000000000000000000000000000000000000000000000000000000000000000000000000000000000000EF
:4012000000000000000000000000000000000000000000000000000000000000000000000000000000000000000000000000000000000000000000000000000000000000AE
:40124000000000000000000000000000000000000000000000000000000000000000000000000000000000000000000000000000000000000000000000000000000000006E
:407FC000000000000000000000000000000000000000010001000000000000000000000000000000000000000000000000000000000000000000000000000000000000007F
:0200000490303A
:0200000089F67F
:0200000490402A
:20000000FFFFFFFF00000000000000000000000000000000000000000000000000000000E4
:0200000490501A
:0C0000000002041611931100041B9B89E0
:0200000490600A
:0100000001FE
:00000001FF